{
  "_format": "hh-sol-artifact-1",
  "contractName": "anonymize",
  "sourceName": "contracts/anonymize.sol",
  "abi": [
    {
      "inputs": [],
      "stateMutability": "nonpayable",
      "type": "constructor"
    },
    {
      "inputs": [
        {
          "internalType": "string",
          "name": "user_name",
          "type": "string"
        },
        {
          "internalType": "string",
          "name": "file_name",
          "type": "string"
        },
        {
          "internalType": "string[]",
          "name": "column_names",
          "type": "string[]"
        }
      ],
      "name": "anonymize_columns",
      "outputs": [],
      "stateMutability": "payable",
      "type": "function"
    },
    {
      "inputs": [],
      "name": "getMemos",
      "outputs": [
        {
          "components": [
            {
              "internalType": "string",
              "name": "user_name",
              "type": "string"
            },
            {
              "internalType": "string",
              "name": "file_name",
              "type": "string"
            },
            {
              "internalType": "string[]",
              "name": "column_names",
              "type": "string[]"
            },
            {
              "internalType": "uint256",
              "name": "timestamp",
              "type": "uint256"
            },
            {
              "internalType": "address",
              "name": "from",
              "type": "address"
            }
          ],
          "internalType": "struct anonymize.Memo[]",
          "name": "",
          "type": "tuple[]"
        }
      ],
      "stateMutability": "view",
      "type": "function"
    }
  ],
  "bytecode": "0x608060405234801561001057600080fd5b5033600160006101000a81548173ffffffffffffffffffffffffffffffffffffffff021916908373ffffffffffffffffffffffffffffffffffffffff160217905550611077806100616000396000f3fe6080604052600436106100295760003560e01c806355ffef871461002e578063865c51721461004a575b600080fd5b61004860048036038101906100439190610726565b610075565b005b34801561005657600080fd5b5061005f6102c1565b60405161006c9190610acc565b60405180910390f35b600034116100b8576040517f08c379a00000000000000000000000000000000000000000000000000000000081526004016100af90610b4b565b60405180910390fd5b600160009054906101000a900473ffffffffffffffffffffffffffffffffffffffff1673ffffffffffffffffffffffffffffffffffffffff166108fc349081150290604051600060405180830381858888f19350505050158015610120573d6000803e3d6000fd5b5060006040518060a0016040528088888080601f016020809104026020016040519081016040528093929190818152602001838380828437600081840152601f19601f82011690508083019250505050505050815260200186868080601f016020809104026020016040519081016040528093929190818152602001838380828437600081840152601f19601f8201169050808301925050505050505081526020018484906101cf9190610d4e565b81526020014281526020013373ffffffffffffffffffffffffffffffffffffffff16815250908060018154018082558091505060019003906000526020600020906005020160009091909190915060008201518160000190816102329190610f6f565b5060208201518160010190816102489190610f6f565b50604082015181600201908051906020019061026592919061057d565b506060820151816003015560808201518160040160006101000a81548173ffffffffffffffffffffffffffffffffffffffff021916908373ffffffffffffffffffffffffffffffffffffffff1602179055505050505050505050565b60606000805480602002602001604051908101604052809291908181526020016000905b8282101561057457838290600052602060002090600502016040518060a001604052908160008201805461031890610d92565b80601f016020809104026020016040519081016040528092919081815260200182805461034490610d92565b80156103915780601f1061036657610100808354040283529160200191610391565b820191906000526020600020905b81548152906001019060200180831161037457829003601f168201915b505050505081526020016001820180546103aa90610d92565b80601f01602080910402602001604051908101604052809291908181526020018280546103d690610d92565b80156104235780601f106103f857610100808354040283529160200191610423565b820191906000526020600020905b81548152906001019060200180831161040657829003601f168201915b5050505050815260200160028201805480602002602001604051908101604052809291908181526020016000905b828210156104fd57838290600052602060002001805461047090610d92565b80601f016020809104026020016040519081016040528092919081815260200182805461049c90610d92565b80156104e95780601f106104be576101008083540402835291602001916104e9565b820191906000526020600020905b8154815290600101906020018083116104cc57829003601f168201915b505050505081526020019060010190610451565b505050508152602001600382015481526020016004820160009054906101000a900473ffffffffffffffffffffffffffffffffffffffff1673ffffffffffffffffffffffffffffffffffffffff1673ffffffffffffffffffffffffffffffffffffffff1681525050815260200190600101906102e5565b50505050905090565b8280548282559060005260206000209081019282156105c5579160200282015b828111156105c45782518290816105b49190610f6f565b509160200191906001019061059d565b5b5090506105d291906105d6565b5090565b5b808211156105f657600081816105ed91906105fa565b506001016105d7565b5090565b50805461060690610d92565b6000825580601f106106185750610637565b601f016020900490600052602060002090810190610636919061063a565b5b50565b5b8082111561065357600081600090555060010161063b565b5090565b6000604051905090565b600080fd5b600080fd5b600080fd5b600080fd5b600080fd5b60008083601f8401126106905761068f61066b565b5b8235905067ffffffffffffffff8111156106ad576106ac610670565b5b6020830191508360018202830111156106c9576106c8610675565b5b9250929050565b60008083601f8401126106e6576106e561066b565b5b8235905067ffffffffffffffff81111561070357610702610670565b5b60208301915083602082028301111561071f5761071e610675565b5b9250929050565b6000806000806000806060878903121561074357610742610661565b5b600087013567ffffffffffffffff81111561076157610760610666565b5b61076d89828a0161067a565b9650965050602087013567ffffffffffffffff8111156107905761078f610666565b5b61079c89828a0161067a565b9450945050604087013567ffffffffffffffff8111156107bf576107be610666565b5b6107cb89828a016106d0565b92509250509295509295509295565b600081519050919050565b600082825260208201905092915050565b6000819050602082019050919050565b600081519050919050565b600082825260208201905092915050565b60005b83811015610840578082015181840152602081019050610825565b60008484015250505050565b6000601f19601f8301169050919050565b600061086882610806565b6108728185610811565b9350610882818560208601610822565b61088b8161084c565b840191505092915050565b600081519050919050565b600082825260208201905092915050565b6000819050602082019050919050565b60006108ce838361085d565b905092915050565b6000602082019050919050565b60006108ee82610896565b6108f881856108a1565b93508360208202850161090a856108b2565b8060005b85811015610946578484038952815161092785826108c2565b9450610932836108d6565b925060208a0199505060018101905061090e565b50829750879550505050505092915050565b6000819050919050565b61096b81610958565b82525050565b600073ffffffffffffffffffffffffffffffffffffffff82169050919050565b600061099c82610971565b9050919050565b6109ac81610991565b82525050565b600060a08301600083015184820360008601526109cf828261085d565b915050602083015184820360208601526109e9828261085d565b91505060408301518482036040860152610a0382826108e3565b9150506060830151610a186060860182610962565b506080830151610a2b60808601826109a3565b508091505092915050565b6000610a4283836109b2565b905092915050565b6000602082019050919050565b6000610a62826107da565b610a6c81856107e5565b935083602082028501610a7e856107f6565b8060005b85811015610aba5784840389528151610a9b8582610a36565b9450610aa683610a4a565b925060208a01995050600181019050610a82565b50829750879550505050505092915050565b60006020820190508181036000830152610ae68184610a57565b905092915050565b600082825260208201905092915050565b7f506c6561736520706179206d6f7265207468616e203020657468657200000000600082015250565b6000610b35601c83610aee565b9150610b4082610aff565b602082019050919050565b60006020820190508181036000830152610b6481610b28565b9050919050565b7f4e487b7100000000000000000000000000000000000000000000000000000000600052604160045260246000fd5b610ba38261084c565b810181811067ffffffffffffffff82111715610bc257610bc1610b6b565b5b80604052505050565b6000610bd5610657565b9050610be18282610b9a565b919050565b600067ffffffffffffffff821115610c0157610c00610b6b565b5b602082029050602081019050919050565b600080fd5b600067ffffffffffffffff821115610c3257610c31610b6b565b5b610c3b8261084c565b9050602081019050919050565b82818337600083830152505050565b6000610c6a610c6584610c17565b610bcb565b905082815260208101848484011115610c8657610c85610c12565b5b610c91848285610c48565b509392505050565b600082601f830112610cae57610cad61066b565b5b8135610cbe848260208601610c57565b91505092915050565b6000610cda610cd584610be6565b610bcb565b90508083825260208201905060208402830185811115610cfd57610cfc610675565b5b835b81811015610d4457803567ffffffffffffffff811115610d2257610d2161066b565b5b808601610d2f8982610c99565b85526020850194505050602081019050610cff565b5050509392505050565b6000610d5b368484610cc7565b905092915050565b7f4e487b7100000000000000000000000000000000000000000000000000000000600052602260045260246000fd5b60006002820490506001821680610daa57607f821691505b602082108103610dbd57610dbc610d63565b5b50919050565b60008190508160005260206000209050919050565b60006020601f8301049050919050565b600082821b905092915050565b600060088302610e257fffffffffffffffffffffffffffffffffffffffffffffffffffffffffffffffff82610de8565b610e2f8683610de8565b95508019841693508086168417925050509392505050565b6000819050919050565b6000610e6c610e67610e6284610958565b610e47565b610958565b9050919050565b6000819050919050565b610e8683610e51565b610e9a610e9282610e73565b848454610df5565b825550505050565b600090565b610eaf610ea2565b610eba818484610e7d565b505050565b5b81811015610ede57610ed3600082610ea7565b600181019050610ec0565b5050565b601f821115610f2357610ef481610dc3565b610efd84610dd8565b81016020851015610f0c578190505b610f20610f1885610dd8565b830182610ebf565b50505b505050565b600082821c905092915050565b6000610f4660001984600802610f28565b1980831691505092915050565b6000610f5f8383610f35565b9150826002028217905092915050565b610f7882610806565b67ffffffffffffffff811115610f9157610f90610b6b565b5b610f9b8254610d92565b610fa6828285610ee2565b600060209050601f831160018114610fd95760008415610fc7578287015190505b610fd18582610f53565b865550611039565b601f198416610fe786610dc3565b60005b8281101561100f57848901518255600182019150602085019450602081019050610fea565b8683101561102c5784890151611028601f891682610f35565b8355505b6001600288020188555050505b50505050505056fea2646970667358221220bb6bd2a90f01394f23476c416124399f10d1abcf7188deda9a4b8b75e55158b964736f6c63430008110033",
  "linkReferences": {},
  "deployedLinkReferences": {}
}